:100000000C946E010C948B010C946A050C948B017A
:100010000C948B010C9452050C948B010C948B0165
:100020000C948B010C948B010C948B010C948B0120
:100030000C948B010C948B010C9480030C948B0119
:100040000C948B010C948B010C948B010C948B0100
:100050000C948B010C948B010C948B010C948B01F0
:100060000C948B010C948B010C948B010C948B01E0
:100070003230323031323034303331340001050423
:100080001410111500000000000000000000000026
:100090000000000000000000000000000000000060
:1000A0000000000000000000000000000000000050
:1000B0000000000000000000000000000000000040
:1000C0000000000000000000000000000000000030
:1000D0000000000000000000000000000000000020
:1000E0000000000000000000000000000000000010
:1000F0000000000000000000000000000000000000
:1001000000000000000000000000000000000000EF
:1001100000000000000000000000000000000000DF
:1001200000000000000000000000000000000000CF
:1001300000000000000000000000000000000000BF
:1001400000000000000000000000000000000000AF
:10015000000000000000000000000000000000009F
:10016000000000000000000000000000000000008F
:10017000000000000000000000000000000000007F
:10018000000000000000000000000000000000006F
:10019000000000000000000000000000000000005F
:1001A0000000000000000000000000000000FF034D
:1001B0000100010001000100020002000200020033
:1001C000030003000300040004000500050006000E
:1001D000060007000800080009000A000B000C00D8
:1001E0000D000E000F001000110012001400150089
:1001F000170018001A001B001D001F00210023001B
:100200002500270029002B002D003000320035008A
:1002100038003A003D004000430046004A004D00CF
:100220005000540058005B005F00630067006C00E2
:100230007000740079007D00820087008C009100BE
:1002400096009C00A100A700AD00B200B800BF005E
:10025000C500CB00D200D900DF00E600EE00F500BB
:10026000FC0004010C0113011B0124012C013401C9
:100270003D0146014F01580161016B0174017E018E
:10028000880192019D01A701B201BD01C801D301FE
:10029000DE01EA01F60102020E021A02270233020F
:1002A00040024D025B026802760284029202A002C2
:1002B000AF02BE02CD02DC02EB02FB020A031A030C
:1002C0002B033B034C035D036E037F039103A303E6
:1002D000B503C703D903EC03FF03000011241FBEBD
:1002E000CFEFD4E0DEBFCDBF11E0A0E0B1E0E8E6A3
:1002F000FFE202C005900D92A834B107D9F721E0C2
:10030000A8E4B1E001C01D92A03FB207E1F70E944E
:10031000A6140C94B2170C940000CF93DF9300D076
:1003200000D000D0CDB7DEB74091710120919B0184
:1003300030919C012F593A4009F442E06623F9F0CC
:10034000823019F497E9961B692F96E0EFE1F1E00E
:10035000DE01119601900D929A95E1F7E82FF0E0F9
:100360003197EE0FFF1F81E090E08C0F9D1FE80F8B
:10037000F91F0190F081E02DE40FF11D60832696B6
:100380000FB6F894DEBF0FBECDBFDF91CF910895B9
:10039000813019F4109273010895609372010895E9
:1003A00081E00895611160931D010895662389F02D
:1003B000813061F480919E0190917C01891B681BC2
:1003C00060937C0182E080931E0103C0635E6093B2
:1003D0001C0180911C01873418F086E480931C0175
:1003E000089560936B010895FF920F931F93CF932D
:1003F000DF93EC018B01F22E20919B0130919C0147
:10040000232B31F0E0919B01F0919C01842F099501
:10041000D0939C01C0939B01CD2B39F0E0919B01BF
:10042000F0919C01B8018F2D099581E080937501B1
:10043000DF91CF911F910F91FF900895DC01909172
:100440007B01983098F4E92FF0E0EE0FFF1FE052A7
:10045000FE4FB183A0839F5F90937B0128E049E02A
:10046000CD010E94F40180917B0108958FEF0895E2
:10047000CF93DF9380917B018823B1F081508093EB
:100480007B01282F30E0F901EE0FFF1FE052FE4FF5
:10049000C081D181882369F0220F331FF901E25214
:1004A000FE4F8081918107C0C0E0D0E080E090E005
:1004B00002C080E090E02AE049E060E070E00E9445
:1004C000F401CE01DF91CF9108950F931F93CF9345
:1004D000DF93EC018B010E943802B801CE010E942B
:1004E0001E02DF91CF911F910F910895CF93C0917C
:1004F0001A01C1111BC0813C39F460E070E082E751
:100500009BE00E94650215C0823C39F460E070E017
:100510008CE992E00E9465020CC0873B49F460E0E0
:1005200070E08BEA9AE00E941E0203C0C1E001C0A5
:10053000C1E08C2FCF910895813C41F460E070E0E0
:1005400082E79BE00E94650280E00895823C41F4CE
:1005500060E070E081E09DE00E94650280E0089527
:10056000873B41F460E070E081EB9AE00E941E025C
:1005700080E0089581E00895813C41F460E070E0FE
:1005800082E79BE00E94650280E00895823C41F48E
:1005900060E070E086E792E00E94650280E00895E6
:1005A00081E008959091A601992361F0E9EAF1E0D4
:1005B00091E004C09F5F3396903189F02081211132
:1005C000F9CF01C090E0292F30E0290F311D290F0C
:1005D000311DF901EA55FE4F8083728361830895CE
:1005E000E6EAF1E023ED31E0838180838481958127
:1005F000928381833396E217F307B1F7E6EAF1E0DD
:1006000015A617A616A608950F931F93CF93DF93F1
:10061000D82F8B01C0917B01C1508AF0EC2FEE0FD7
:10062000FF0BE052FE4F0190F081E02DB8018D2FBD
:100630000995882331F0C1508AF781E003C081E039
:1006400001C080E0DF91CF911F910F910895CF936A
:10065000DF938091A601882359F0C6EAD1E0698131
:100660007A810E9404030E94F00288818111F7CFF1
:10067000DF91CF910895BC018091DB010E94D202ED
:1006800008951092DB01109283011092820181E0A3
:100690008093750108959091DB01803181F4292FB9
:1006A00020699F70892F90E00F9724F02093DB0141
:1006B00081E008952F5F2093DB0181E00895882376
:1006C00029F090689093DB0180E00895892F8F7E58
:1006D00095FD05C080688093DB0181E00895806C02
:1006E0008093DB0181E008959FEF980F882339F014
:1006F00028E13FE1F9013197F1F79150D8F70895DA
:100700001F920F920FB60F9211242F933F938F9346
:100710009F93AF93BF93EF93FF93809180018823C2
:10072000E9F0E0917F0120B131B1F0E0EE0FFF1F61
:10073000DF01A452BE4F2D933C93E952FE4F8081BE
:1007400091818217930708F401962817390708F456
:1007500001979183808381E08093810181E0809380
:100760008001FF91EF91BF91AF919F918F913F9148
:100770002F910F900FBE0F901F901895BF92CF92A0
:10078000DF92EF92FF920F931F93CF93DF9310921C
:10079000810120B191B1309176012295269526955F
:1007A0002370892F90E0880F991F880F991F820F5F
:1007B000911D830F8093760180917E01882309F437
:1007C00063C110927E0180917F01909178019923FD
:1007D00019F01F9810927F01811140C080911E0175
:1007E000882349F08091DC019091DD019093D8013C
:1007F0008093D70104C08091D7019091D801409691
:10080000807E969587956EE872E00E9470178091C1
:100810001D018750680F60937D01809168018823D6
:1008200021F08150809368010AC06D3140F460E08E
:1008300070E084E00E94D20285E08093680180919C
:100840007801811112C18BE084B981E080937F012E
:100850001092800183B1886483B907C1813009F0A7
:1008600004C180911E018823D1F08091DE01909116
:10087000DF019093DA018093D90140969695879590
:10088000929582958F7089279F708927E8E5F1E01E
:1008900028E631E081939193E217F307D9F7C091ED
:1008A000D901D091DA016096D695C795D295C295B7
:1008B000CF70CD27DF70CD27B0907C01BE0176953B
:1008C00067956D5C710980E090E00E94501628E405
:1008D00031EE42E850E40E94A81520E030E0A90182
:1008E0000E943C156B017C016B2D0B2C000C770BCF
:1008F000880B990B0E9452169B01AC01C701B601EF
:100900000E943C150E941A166B0170939F01609320
:100910009E0180915701E82FF0E0EE0FFF1FE85A8B
:10092000FE4F208131817E01E21AF30AD183C08318
:100930008F5F87708093570100911C0110E0C70101
:10094000880F991F880F991FC80FD91FB8016B19FD
:100950007109B7FC7395072E000C880B990B0E9448
:10096000521628E431EE42E850E40E94DE1620E000
:1009700030E04DE453E40E943C150E942116660FBE
:10098000771FCE01861B970B23E01816190614F467
:10099000019703C099230CF401962150B1F7181662
:1009A000190684F5FF200CF46AC020915601121636
:1009B00024F4281B209356014FC0BC017695762F56
:1009C000662777956795605C710912F461587F4FCF
:1009D000660F672F661F770B1616170614F061E077
:1009E00070E088E1861B809356010D5F1F4FC01693
:1009F000D10624F480917701863971F185E00E9457
:100A0000D2022AC09C012C5F3F4FEAF4FF20DCF4A5
:100A10002091560122232CF42450281B20935601A8
:100A20001BC024EE281B2093560120917D012F31FD
:100A300098F06CEF7FEF681B790B7595679586E0F2
:100A40000E94D20209C080917D018E3128F060E0C1
:100A500070E087E00E94D20285E084B910927F01A5
:100A60001092800183B1886483B980911E0188232C
:100A700059F080911E01815080931E0105C09C0198
:100A80002C5F3F4F02F7C4CFDF91CF911F910F91A1
:100A9000FF90EF90DF90CF90BF900895A89580E4ED
:100AA00080BF08951F920F920FB60F9211248F935B
:100AB00081E080937A018F910F900FBE0F901F906D
:100AC00018958FB182FB882780F991E08927809360
:100AD000A10108951F920F920FB60F9211248F93C8
:100AE00081E0809379018F910F900FBE0F901F903E
:100AF00018958093A101882341F080E10E944B0367
:100B000080E090E00E943B0309C080E00E944B031C
:100B100080918201909183010E943B031092830196
:100B2000109282010895CF93DF9310927A01809101
:100B30008201909183019C012F5F3F4F882790781D
:100B4000822B932B9093830180938201C091A1010A
:100B50000E946105C81721F0109278010E94790562
:100B6000C0918201D0918301809178018823F9F0AE
:100B7000BE0183E00E94D2020E942703CF73DD27CB
:100B8000CD2B09F05DC01092550185E084B910921B
:100B90007F011092800183B1886483B9E1E6F0E0BF
:100BA000808181608083139A86EE83B939C08091F9
:100BB000DB01807F803B31F460E070E081E00E94E7
:100BC000D20204C0BE0181E00E94D2028091DB010A
:100BD00084FF14C085FF04C0CE010E943B0320C0E7
:100BE0006897F0F0109283011092820180628093E6
:100BF000DB0180E090E00E943B0312C0882381F07B
:100C000085FF03C00E9441030BC0629748F08064D7
:100C10008093DB0180E090E00E943B030E9441034F
:100C200080915501811106C083B1886483B981E048
:100C300080937E01809155018F5F8F718093550164
:100C4000DF91CF910895CF93A89583E480BF1F983B
:100C50000E9461058111FCCF0E9441038CB788601E
:100C60008CBF1092810110927A0110927901C1E03B
:100C70001FC086B78F79806486BF86B7806186BFC4
:100C8000889586B78F7E86BF8091790181111092F9
:100C9000780180918101882331F0C0931E01C093B7
:100CA0007E010E94BE0380917A0181110E9493050A
:100CB000809178018111DDCF82E080931E018CB795
:100CC000877F8CBF85E084B910927F0110928001EC
:100CD00083B1886483B9E1E6F0E08081816080833C
:100CE000139A86EE83B90E944E05CF91089586B778
:100CF0008F7986BF86B7806186BF889586B78F7EDD
:100D000086BF08955091A00180917701581718F47B
:100D10005FEF580F04C0851710F451E0580F4FEFE4
:100D2000450F453910F48F9A01C08F98842F90E0B9
:100D3000880F991FBC0160557E4FFB0125913491AE
:100D4000E09177014E1788F4E0916A00F0916B0012
:100D5000EF2B59F42F3F43E0340739F42FEF33E002
:100D600030936B0020936A001FC0E0916A00F091FD
:100D70006B00E217F30748F4EAE6F0E020813181E6
:100D80002F5F3F4F318320830FC0E0916A00F091C5
:100D90006B002E173F0740F4EAE6F0E02081318136
:100DA00021503109318320838C579F4FFC012591BD
:100DB0003491E0916C00F0916D00E217F30748F474
:100DC000ECE6F0E0208131812F5F3F4F31832083BB
:100DD0000FC0E0916C00F0916D002E173F0740F4BA
:100DE000ECE6F0E02081318121503109318320830C
:100DF000A0916A00B0916B00FB0125913491A2177C
:100E0000B30761F420916C0030916D00FC01859175
:100E100094912817390711F4509377010895E091C0
:100E20000601F09107013196FB70F460F093070121
:100E3000E0930601809176018B5A80937601E491CC
:100E4000809176018E0F0895EF92FF920F931F937A
:100E5000CF93DF9382E00E947403F89480E890E0DF
:100E60000E949817853A19F0789480E017C00F2EE9
:100E7000FBE9EF2EF1E0FF2EF02DC4E8D1E001E810
:100E800010E004581140C8018C0F9D1F0E94981754
:100E90008993CE15DF05B9F7789481E0DF91CF9182
:100EA0001F910F91FF90EF900895EF92FF920F9393
:100EB0001F93CF93DF9382E00E947403F8940F2E68
:100EC000FBE9EF2EF1E0FF2EF02DC4E8D1E000E8C1
:100ED00010E0045811406991C8018C0F9D1F0E94B9
:100EE000A017CE15DF05B9F765EA80E890E00E940B
:100EF000A0177894DF91CF911F910F91FF90EF9001
:100F000008950F931F93CF93DF9300D01F92CDB717
:100F1000DEB795E0998394E09A8393E09B83FE018A
:100F2000319640E050E090E061E070E0A1919A01DC
:100F3000220F331F8C0102C0159507952A95E2F701
:100F40009801237019F0213099F024C0B0B39B01AF
:100F500002C0220F331FAA95E2F720953B2F3223C0
:100F600030BB32B3322332BB31B3232321BB22C087
:100F7000B0B39B0102C0220F331FAA95E2F7322FB4
:100F800030953B2330BB32B3322B32BB31B3232BF2
:100F900021BB10C0B0B39B0102C0220F331FAA9522
:100FA000E2F73B2F322B30BB32B3322B32BB31B3A3
:100FB000232B21BB4F5F5F4F4330510509F0B6CF64
:100FC0000F900F900F90DF91CF911F910F91089587
:100FD000CF93C82F809377018093A00180917801EF
:100FE000811102C00E948107C1110AC010926B00DA
:100FF00010926A0010926D0010926C008F981CC0C5
:10100000C150C53910F48F9A01C08F988C2F90E091
:10101000880F991FFC01E055FE4F259134913093C4
:101020006B0020936A00FC01EC57FF4F859194916F
:1010300090936D0080936C00CF910895883041F4B7
:101040001092D60110924E0180E00E94E80737C04E
:10105000813031F580914E01811109C060327105F6
:1010600070F181E080934E010E94410328C08130DD
:10107000A1F46B3B710538F082E080934E0180E073
:101080000E94E8071CC061157105C9F06270862FC7
:10109000880F8E5E0E94E80712C00E9438020FC0BF
:1010A000813869F481E080934E018091D6018F5F91
:1010B0008093D6010E9441038BE40E94E80780E000
:1010C0000895982F990F88230CF49095892F0895EF
:1010D000F89488ED8FBD88E880BF7894A895FFCFFD
:1010E0008091810181110E94BE0380917A0181115A
:1010F0000E9493050895FF920F931F93CF93DF9360
:101100000097D1F0F0907501F11019C0EC0108E0E2
:1011100017E005C0809175012197811111C0C801A8
:101120000197F1F70E9470080E942703C130D10592
:1011300089F7FF24F39404C0FF24F39401C0F12C39
:101140008F2DDF91CF911F910F91FF900895CF9335
:10115000C82F8823A9F089E10E94E80786EA90E079
:101160000E947B0880E00E94E8078AEF90E00E94DE
:101170007B08C15081F78AE992E00E947B080FC08A
:1011800089E10E94E80788E090E00E947B0880E007
:101190000E94E8078AEF90E00E947B08ECCFCF9195
:1011A0000895CF93DF9364E60E946417282F892F58
:1011B0006AE00E946417C82FD92F222351F0822F92
:1011C0000E94A7088C2F0E94A7088D2F0E94A708B5
:1011D00003C08111F7CFF9CFDF91CF9108958091AE
:1011E0007D010E94D10808958091710190911A01AA
:1011F000911182E090E0FC01EB5EFE4F2081209394
:101200001901FC01EE5EFE4F808180931801089564
:10121000BF92CF92DF92EF92FF920F931F93CF93E3
:10122000DF93EC010E94F4082091190160911801EC
:10123000E0911A01F0E0E15FFE4FD18080917101F1
:10124000882351F091E0D91207C0822F90E0860FD9
:10125000911D9595879558C0422F50E0C417D5072A
:101260000CF449C0462F50E04C175D070CF445C004
:10127000811102C08C2F48C0062F021BED2DF0E01B
:101280003197802F90E0BF010E948417E62E609373
:101290009D01DD20A1F110E0CE2EBF2E622FAE0108
:1012A000421B5109E694F12CCA01992324F48827A2
:1012B0009927841B950BE816F9061CF5F80130E018
:1012C00015C0CF016C2D7B2D0E947017620FAE01EF
:1012D000461B5109E00FF11FCA01992324F4882706
:1012E0009927841B950BE816F9066CF43F5FD3121F
:1012F000E8CF862F09C0822F07C0862F05C0822F16
:1013000003C0822F01C0862FDF91CF911F910F91D3
:10131000FF90EF90DF90CF90BF900895809374017D
:101320000E94E8070895CF93DF930E942407882343
:1013300009F44FC0E4E8F1E0808180937101C5E1D8
:10134000D1E08181888362E171E08281DB018C934D
:1013500083818983848111968C938FE091E025812C
:10136000DC0111962C932681209373012781209311
:101370007201208520930B0129E031E04185D901DC
:101380004C93428511964C93238520930801248524
:1013900020930C01258520931A0126852A83278511
:1013A000DB0112962C932089DC0112962C93818903
:1013B00080931C01828980937C01838980931D0125
:1013C000848980930E01858980930D01868980939D
:1013D0006B01DF91CF910895CF93DF93E4E8F1E0C3
:1013E000809171018083C5E1D1E08881818362E1D0
:1013F00071E0DB018C9182838981838311968C91CA
:1014000084838FE091E0DC0111962C91258320915B
:101410007301268320917201278320910B0120877D
:1014200029E031E0D9014C91418711962C91228716
:1014300020910801238720910C01248720911A0113
:1014400025872A812687DB0112962C912787DC01CC
:1014500012968C91808B80911C01818B80917C01F4
:10146000828B80911D01838B80910E01848B8091F2
:101470000D01858B80916B01868B0E945507DF9152
:10148000CF910895883099F410924F0180E00E9426
:10149000E8078091A101811148C081E080934F014C
:1014A00060E070E08EE198E00E941E023EC0982F3E
:1014B000907F903BE1F420914F014217A0F0CB01C7
:1014C0006DE570E00E947017029749F42F5F20933A
:1014D0004F01421750F188E30E94E80726C082E1DD
:1014E0000E94E80722C080E00E94E8071EC0903EEC
:1014F00081F480914F01882349F0481738F060E06B
:1015000070E08EE198E00E941E020FC00E94380237
:101510000CC08A3051F46091D60180914F01F901DD
:1015200009950E94EC090E94380280E008954091DC
:1015300071014E5F2DE831E00E94420A08952DE8C6
:1015400031E043E00E94420A089528EC31E042E095
:101550000E94420A089522ED31E041E00E94420AD1
:10156000089526ED31E042E00E94420A089521EFFD
:1015700031E041E00E94420A089540917D014D31E1
:1015800098F080E08E5F282F30E0F901E85CFE4F94
:1015900090814917B8F7F901E95CFE4FE081F0E06E
:1015A000E358FF4F8491089580E008950F931F93AF
:1015B000CF9390917D0191509C3120F480E00E9466
:1015C00081077AC0C82FC295CF708F709091780133
:1015D000911103C0C33008F0C2E0873030F4E82F27
:1015E000F0E0E358FF4FE4914CC08730D1F4009114
:1015F0004D0110E00F5F1F4F0E940F0765E00E9432
:1016000064179801290F311DC90166E070E00E943E
:10161000841780934D01FC01FF27E358FF4FE491AD
:1016200030C08830D1F480917801882311F08FE0A8
:1016300001C083E0682351F480914D0190E0019650
:1016400066E070E00E94841780934D01E0914D01A7
:10165000F0E0E358FF4FE49114C0809178018823B3
:1016600021F00E94BD0AE82F0CC0862F869563E00A
:101670000E946417E92FF0E0EE0FFF1FE358FF4FC1
:10168000E491C33079F480914C0190E0019663E1DC
:1016900070E00E94701780934C019927DC01AB5DCC
:1016A000BE4FCC91CC2321F0C13019F0EE0F01C018
:1016B000E0E08E2F0E948107CF911F910F91089536
:1016C000CF93C091770189E18C0F873908F080E0D2
:1016D0000E94E80782E00E9474038C2F0E94E807B2
:1016E000CF9108950F931F93CF938B01883091F47E
:1016F00080E00E94E80760E080910E010E94D60A17
:1017000010926F01012B09F06AC181E0809378018A
:10171000C0E072C1813061F46931710508F461C1C2
:101720008093780180910E010E94D60AC0E064C1C6
:10173000833089F5709354016093530180910E01B9
:101740000E94D60AC0911A01C1114DC180916B014E
:10175000882309F44AC190E09C0122953295307F9C
:101760003227207F3227281B390BC9018295929599
:10177000907F9827807F9827821B930B880F991F53
:101780008017910708F038C160E070E084E39DE0C5
:101790000E94650231C1813BB1F481E090E00E947A
:1017A00008090E94E807C0917101C11104C0083105
:1017B000110508F421C161E070E086E79EE00E9417
:1017C0006502C0E019C1813E41F461E070E086E746
:1017D0009EE00E946502C0E00FC1813891F58091C2
:1017E0007301882329F12091720130E0A90142950B
:1017F0005295507F5427407F5427421B530B9A0128
:1018000022953295307F3227207F3227241B350BDB
:10181000220F331F40915301509154014217530737
:1018200038F090E00E9408090E94E807C0E0E4C098
:1018300080911B0190E00E9408090E94E807C0E027
:10184000DBC0813C49F46091770170E086E79EE05F
:101850000E946502C0E0D0C0823B81F4C0911A01B1
:10186000CC2341F086E990E00E9408090E94E80735
:10187000C0E0C2C086E90E94E807BEC0823E29F4EB
:1018800080E00E94E807C0E0B7C0823C41F466E90E
:1018900070E086E79EE00E946502C0E0ADC083393B
:1018A00029F480E00E94E807C0E0A6C0833C41F430
:1018B00060E070E086E792E00E946502C0E09CC0B4
:1018C000843C51F40E94600B60E070E084E39DE092
:1018D0000E946502C0E090C08D3B11F40E94680830
:1018E0008F3C41F460E070E080ED91E00E94650281
:1018F000C0E082C08A3BB1F4672B09F078C0C09188
:101900001A01CC2341F00E94600B10921A010E9430
:10191000EC09C0E071C060E070E08FE99AE00E94DD
:101920001E026AC0C0911A01C11163C08A3C41F411
:101930000E94600B81E080931A010E94EC095CC058
:10194000833B39F460E070E080EE91E10E94650233
:1019500053C0853C49F40E94600B60E070E08CEA63
:1019600092E10E94650248C0873CA9F490910E0163
:10197000892F82958F708F5F83708295807F9F7093
:10198000892B80930E0160E00E94D60A0E94EC0928
:101990000E94600B31C0873BD9F481E080937001D5
:1019A000CB018F739927892B69F490910E01892FB0
:1019B0008F708F5F292F207F6BE00E946417922B1E
:1019C00090930E01602F80910E010E94D60A14C0E0
:1019D000873E89F4109270010E94EC090DC0C0E0AE
:1019E0000BC0C0E009C0C0E007C0C82F05C0C1E0FF
:1019F00003C0C1E001C0C1E08C2FCF911F910F91B6
:101A00000895813C41F460E070E082E79BE00E9431
:101A1000650280E00895823C41F460E070E08CEB68
:101A200092E00E94650280E00895813B59F4CB0169
:101A30006EE370E00E947017892B91F40E94600B96
:101A400080E00895813E71F4CB016EE370E00E9466
:101A500070176F5F60930C010E94EC0980E008959D
:101A600080E0089581E008950F931F93CF93DF9353
:101A7000C82F8B01873B49F480E00E94E8078091E2
:101A80001A01882309F499C0BBC080798039D1F448
:101A9000909115018C2F8F70823059F4209116018E
:101AA0008091730181110BC0892F921740F4822F0E
:101AB00006C020911601892F291708F4822F0E9451
:101AC000E80705C0803819F480E00E94E807C830B4
:101AD00039F460E080910D010E94D60AD1E097C0F0
:101AE000C13071F40931110508F48CC081E0809394
:101AF0007801602F80910D010E94D60AD0E087C046
:101B0000C33039F4602F80910D010E94D60AD0E0D5
:101B10007EC0C43CA1F4D0917301DD2341F06D2F50
:101B200070E086E79EE00E946502D0E070C06091A0
:101B30001B0170E086E79EE00E94650268C0C43B1E
:101B400061F40E94600B1092DB0161E070E086E7B7
:101B50009EE00E946502D0E05AC0C53C41F466E9AF
:101B600070E086E79EE00E946502D0E050C0D09110
:101B70001A01D11149C0CA3B39F460E070E087EB2B
:101B80009AE00E941E0243C0C73CA9F490910D0147
:101B9000892F82958F708F5F83708295807F9F7071
:101BA000892B80930D0160E00E94D60A0E94EC0907
:101BB0000E94600B2CC0C73BE1F481E08093700170
:101BC000C8018F739927892B69F490910D01892F92
:101BD0008F708F5F292F207F6BE00E946417922BFC
:101BE00090930D01602F80910D010E94D60AD0E0E4
:101BF0000EC0C73E59F4109270010E94EC0907C054
:101C0000D1E005C0D0E003C0D1E001C0D1E08D2F0C
:101C1000DF91CF911F910F910895CF93C0917701DC
:101C200080E00E94E80783E00E9474038C2F0E94EA
:101C3000E807CF910895CF93C0911A01C1114CC00C
:101C4000883039F410926F0110926D0110926C017E
:101C50004AC0813B61F480916F0181508330F0F57F
:101C600083E080936F0180936E01C1E03CC0853BAF
:101C7000B9F4CB016EE370E00E947017892B99F5DF
:101C800080916F018A3F78F58B5F80936F0180931D
:101C90006E0110926D0110926C010E94600B23C0C6
:101CA0008130F1F480916C0190916D01019688383A
:101CB0002EE0920728F490936D0180936C0113C07D
:101CC00010926D0110926C0180916F01882351F088
:101CD000815080936F0107C0C1E005C0C1E003C01F
:101CE000C1E001C0C82F8C2FCF910895CF92DF9211
:101CF000EF92FF920F931F93CF93DF93C82F8B0127
:101D0000D0911901E090180180917101882319F098
:101D1000C0909D0102C0CC24C394F0906F01B80123
:101D20008C2F0E941B0ED0906F01DD2009F4DAC1C8
:101D3000F1100CC0809177018093520107C060E0E0
:101D400070E082E79BE00E946502DFC1C83009F4C1
:101D5000CDC1CA30B9F4CDC18D2F90E08017910765
:101D600038F48E2D90E00817190710F400931B012A
:101D7000C8010E9408090E948E0981E08093050134
:101D8000D12CC3C1C13C41F460E070E082E79BE02C
:101D90000E946502D12CB9C1C23CD1F480911A01D4
:101DA000811104C00F2EF6E9EF2EF02D80917701FE
:101DB0008E1520F48E2D0E948E0904C080911B0187
:101DC0000E948E098091770180935201D12C9DC190
:101DD000C43C59F480E00E94E80760E070E084E3CE
:101DE0009DE00E946502D12C90C18FE48C0F82305F
:101DF00008F061C080917101882341F0C80168E159
:101E000070E00E947017892B09F05AC10115110565
:101E1000A1F4C23B21F48FEF8093050129C080918A
:101E200077018E1520F08FEF8093050121C0D81720
:101E3000F8F081E0809305011BC0073381E01807AB
:101E400040F0809177018E1520F08FEF809305018F
:101E50000FC00D36124060F080917701D81740F026
:101E60000E94600B60E070E084E39DE00E946502E8
:101E7000809105016C2D70E0082E000C990B0E94DA
:101E8000531720917701820F911D0E9408098093BA
:101E90001B0190917701891721F0E81202C00E947E
:101EA0000D0E80911B010E948E0980917701809315
:101EB0005201D12C2AC18FE18C0F823038F48091ED
:101EC0000501819580930501D12C1FC1C13009F016
:101ED00050C00E33110519F481E080930501DD2017
:101EE000A9F0809152016D2D70E06150710990E070
:101EF0000E94531760916E0170E00E948417611177
:101F000001C061E06093A0016093740120917701AA
:101F10008091A00190E0821B910960915001709125
:101F200051016F5F7F4F7093510160935001009793
:101F300009F4C8C00CF0E3C0253608F4E3C040E45F
:101F400050E0569547959C01992314F42F5F3F4F1D
:101F5000C901959587950097A1F74617570708F08F
:101F6000B3C00E9482061092510110925001D12CF0
:101F7000CCC0C530F1F4209177012E3408F4A6C00E
:101F8000822F90E0801B910B382F8D3491052CF01F
:101F90008739910518F036E901C03DE4263929F466
:101FA00085E90E94E807D12CB0C03093A001D12C64
:101FB000ACC0C630C1F4909177018091740198173C
:101FC00008F086C0090F111D90E0801791073CF0C2
:101FD0000D3411051CF48DE490E001C0C80180931C
:101FE000A001D12C92C0C73099F49091A0018091AA
:101FF0007701891728F48F5F8093A001D12C85C0C9
:10200000981708F067C081508093A001D12C7DC043
:10201000D0901A01D11060C0C33CC9F481E0909106
:102020007101911180E0809371010E94EC090E947E
:102030000D0E8091770190E00E94080980931B01AA
:102040000E948E0980917701809352015EC0C33B4C
:1020500039F4012B09F059C086E90E948E0955C058
:10206000C33E29F480911B010E948E094EC0C53CDD
:1020700051F480E00E94E80760E070E08CEA92E1B1
:102080000E94650242C0C73B39F460E070E087E916
:102090009AE00E941E0239C0CA3C49F4809177013F
:1020A000809373010E94EC090E94600B2EC0CA3B12
:1020B000B1F460E070E085EA9AE00E941E0225C05B
:1020C000D12C23C0D12C21C0D12C1FC0D12C1DC09C
:1020D000D12C1BC0D12C19C0DD24D39416C0DD2413
:1020E000D39413C0FF2009F431CE29CE10926A0197
:1020F00033CE10926A0100911B0110E02DCE40E01A
:1021000052E01FCF40E051E01CCF8D2DDF91CF91E9
:102110001F910F91FF90EF90DF90CF900895CF9394
:10212000C0E08C2F0E94E80783E190E00E947B08CA
:102130008C2F86950E94E80783E190E00E947B083F
:102140000E9461058823E1F0CF5FC03451F714C0CD
:102150008C2F0E94E80784E090E00E947B08C15029
:10216000B9F710C08C2F0E94E8078DE090E00E9424
:102170007B08C150B9F706C00E94EC09C6E9E8CF58
:10218000C111F0CFCF910895CF92DF92EF92FF92DD
:102190000F931F93CF93DF93C82F8B01D0916F01C3
:1021A0000E941B0EDD2359F0D0916F01D11107C0A1
:1021B00060E070E082E79BE00E946502F7C0C830F3
:1021C00029F481E080930301D0E0F0C0C23C21F407
:1021D00010926F01D0E0EAC0C13B21F5012B69F4F8
:1021E000809102018E3620F08FEF8093030105C0AD
:1021F000823018F481E080930301D0910201809134
:102200000301D80F21F481E080930201CFC0DF36B3
:1022100020F4D0930201D0E0C9C08EE68093020181
:10222000D0E0C4C0C13E39F4809103018195809310
:102230000301D0E0BBC0C23B69F481E0809303019D
:1022400080910201823008F4ACC081508093020179
:10225000D0E0ACC0C13009F0A6C00E33110519F4AE
:1022600081E080930301D0904B018D2D0E94610885
:10227000C82FD0914A018D2F0E946108E090010182
:102280002C2F30E0A901440F551F440F551F440F58
:10229000551FBA01621B730B9B016E2D70E090E01D
:1022A0000E945317F92EF30EC09149018C2F0E9402
:1022B0006108C09000016C2D70E090E00E945317FF
:1022C0009F0D6091020170E0690F711D80916F0197
:1022D0008130B9F480916C0190916D01969587954C
:1022E000929582958F7089279F70892724E730E027
:1022F000A901481B590BCA010E945317B9010E943A
:102300007017862F0E94E80700FD06C00E940F0785
:102310008170D80ED0924B0180914801D80FD09394
:102320004A010E940F0765E20E946417C90FC0931B
:1023300049010E940F078F7339F40E940F076DE067
:102340000E94641790934801EE2039F00E940F0715
:102350008F7319F4EA94E09201010E940F07811132
:1023600009C00E940F076BE00E946417909301015F
:1023700010924A0152E05C1538F40E940F078F71E9
:1023800019F4CA94C09200010E940F07D82FDF777A
:1023900061F40E940F0766E00E94641790930001A9
:1023A00005C0D0E003C0D1E001C0D0E08D2FDF91A7
:1023B000CF911F910F91FF90EF90DF90CF900895F4
:1023C0000F931F93CF93DF93C82F8B01D0910B01F5
:1023D00081E080936A01D33019F48C2F0E94C410DD
:1023E000C83029F481E08093040180E0B0C0C13C92
:1023F00041F460E070E082E79BE00E94650280E0CB
:10240000A6C0C23C69F48D2F90E0019665E070E0B3
:102410000E94841780930B010E94EC0980E097C012
:10242000C13BB1F5D230C0F400FD86C08D2F90E0E5
:10243000FC01E75FFE4F208130910401231B28300F
:1024400020F02F3F19F42EEF01C028E0FC01E75FD8
:10245000FE4F208380E07BC0D43009F06FC09091A4
:10246000080180910401890F823020F482E080937A
:10247000080108C0893718F48093080103C088E771
:1024800080930801809108010E94E80780E05FC006
:10249000C13E49F4809104018195809304010E941A
:1024A000EC0980E054C0C23B29F581E0809304012F
:1024B000D23088F400FD44C08D2F90E0FC01E75F2E
:1024C000FE4F20812F3FF1F1FC01E75FFE4F2F5FB0
:1024D000208380E03CC0D430B9F58091080183307E
:1024E00018F0815080930801809108010E94E8074C
:1024F00080E02DC0C23E21F40E94EC0980E027C09C
:10250000C53C59F460E070E08CEA92E10E946502FB
:1025100080E00E94E80780E01AC0C130B9F40E33B1
:10252000110519F481E08093040180917601080F70
:102530000093760180E00BC080E009C080E007C016
:1025400080E005C080E003C080E001C081E0DF9151
:10255000CF911F910F910895CF93883041F48091CE
:102560006A018130E1F588E00E94E01138C0982FBF
:102570009079903961F481E080936901C0916A019A
:10258000C11127C080911B010E94E80729C0903823
:1025900039F41092690180E00E94E807C0E020C091
:1025A0008130C9F4C0916901CC2341F080916A0166
:1025B000813099F40E94E011C82F12C06733714036
:1025C00078F081E08093780160E080E00E94D60A94
:1025D00007C0C0E005C0C1E003C0C0E001C0C1E069
:1025E0008C2FCF910895CF93DF93C82FD62F8823B8
:1025F000B9F080911B010E94E80788EC90E00E94EE
:102600007B08DD2321F080E991E00E947B0880E0D7
:102610000E94E80788EC90E00E947B08C15049F7CF
:10262000DF91CF9108950E94600B0E946105811196
:102630000E948F100E9493098091730181118093F1
:102640001B0161E070E082E79BE00E941E0208959A
:10265000CF92DF92EF92FF920F931F93CF93DF936E
:1026600080919B0190919C0121E0803D9207E1F4D3
:10267000C0E7D0E00CE710E0FE01849180530E9497
:10268000A7088CE291E00E947B082196C017D10731
:1026900099F782E79BE09093A3018093A2011092A7
:1026A000A5011092A40149C1F1E1803E9F0779F094
:1026B00022E18C3A920709F0C6C080916A0181300C
:1026C00009F02EC180916901882309F429C1C091C4
:1026D0000B01C23009F120F0C43009F494C02DC1BF
:1026E000EC2FF0E0E75FFE4FD08186E90E94E8071B
:1026F000C11105C084E090E00E947B0805C08D2FC9
:10270000869590E00E947B0880E00E94E8078D2F6C
:1027100090E00E947B0811C10E940F078F73082F61
:1027200010E00E940F0767E00E946417C1E0D0E04C
:102730007E0102C0EE0CFF1C9A95E2F70E940F0783
:1027400065E00E94641702C0CC0FDD1F9A95E2F786
:10275000CE0DDF1D0E940F0790E0BE010E9484177E
:10276000C80FD91FC739D10508F0DDC08C2F0E94D2
:10277000E807C8010E947B087E01F594E794F59470
:10278000E794F594E7948E2DE11001C081E0C2300A
:10279000D105F4F0E82EF12CC12CD12CC8010E94F7
:1027A0007B08CE19DF0912F4CC2DDD2D8C2F0E9471
:1027B000E8070E940F07837041F4C8010E947B085C
:1027C000CE01959587950E94E807C230D10534F770
:1027D0000E940F076DE00E946417C1E0D0E002C0C4
:1027E000CC0FDD1F9A95E2F70E940F0790E0BE0123
:1027F0000E947017C80FD91F80E00E94E807CE0121
:102800000E947B089AC0D0910801DD0FD73908F0EB
:10281000D6E9C4E08D2F0E94E80785E090E00E9491
:102820007B08809108010E94E80781E490E00E9403
:102830007B08C15079F780ED92E00E947B0880E030
:102840000E94E8077AC0F2E086379F07B1F40E9441
:10285000EF0880911A01882359F082E79BE090935A
:10286000A3018093A2011092A5011092A40165C05A
:1028700088EE93E00E947B0860C022E08C399207CA
:1028800049F480919E010E94D10888EE93E00E9455
:102890007B0853C0EDE081309E0771F58091A10166
:1028A00081114BC080911B010E94E80784E690E0F3
:1028B0000E947B0880E00E94E80780910C0190E074
:1028C0009C01220F331F22953295307F3227207FC3
:1028D0003227281B390B220F331F220F331F820F81
:1028E000931F880F991F880F991F880F991F84566F
:1028F00091090E947B0821C08C5B924089F460E0C2
:1029000083E00E94F31261E083E00E94F31260E032
:1029100083E00E94F31280ED97E00E947B080DC0D7
:102920000E9477060AC086E90E94E807C8010E9453
:102930007B08C6E9D0E082E12DCFDF91CF911F91D6
:102940000F91FF90EF90DF90CF900895F89485B7A6
:10295000877F85BF88ED90E00FB6F894A8958FBD6E
:1029600090B7977F90BF0FBE88E08CB988EF80BB8F
:1029700083EA8093720081E08093710084E082BBDF
:1029800087BD8CB788608CBF0E944E0585E084B9F6
:1029900010927F011092800183B1886483B9E1E6CF
:1029A000F0E0808181608083139A86EE83B9789409
:1029B00081E00E94740360E070E083E395E10E948F
:1029C0001E02109275010E9413130E94270380912A
:1029D000A2019091A301009751F06091A401709120
:1029E000A5010E9465021092A3011092A20180919C
:1029F0007801882329F080E00E94E8070E942306DE
:102A00000E947008109275010E942813DECF8091F9
:102A10009B0190919C0121E1803E920739F469E18C
:102A200070E086E79EE00E946502089586579E400A
:102A300099F490917701923040F0892F8695969580
:102A40009695890F0E948E09089560E070E082E7F4
:102A50009BE00E946502089560E070E082E79BE0E1
:102A60000E9465020895843021F40E94071580E0D9
:102A7000089581E008955058BB27AA270E94531556
:102A80000C94A4160E94961638F00E949D1620F011
:102A900039F49F3F19F426F40C9493160EF4E09544
:102AA000E7FB0C948D16E92F0E94B51658F3BA1760
:102AB000620773078407950720F079F4A6F50C9454
:102AC000D7160EF4E0950B2EBA2FA02D0B01B901ED
:102AD00090010C01CA01A0011124FF27591B99F094
:102AE000593F50F4503E68F11A16F040A22F232FA0
:102AF000342F4427585FF3CF469537952795A795F0
:102B0000F0405395C9F77EF41F16BA0B620B730B96
:102B1000840BBAF09150A1F0FF0FBB1F661F771F07
:102B2000881FC2F70EC0BA0F621F731F841F48F4BC
:102B3000879577956795B795F7959E3F08F0B0CF45
:102B40009395880F08F09927EE0F9795879508952C
:102B50000E94BC150C94A4160E949D1658F00E9469
:102B6000961640F029F45F3F29F00C948D16511110
:102B70000C94D8160C9493160E94B51668F39923FA
:102B8000B1F3552391F3951B550BBB27AA27621769
:102B90007307840738F09F5F5F4F220F331F441F76
:102BA000AA1FA9F335D00E2E3AF0E0E832D09150AA
:102BB0005040E695001CCAF72BD0FE2F29D0660F97
:102BC000771F881FBB1F261737074807AB07B0E8DA
:102BD00009F0BB0B802DBF01FF2793585F4F3AF0E0
:102BE0009E3F510578F00C948D160C94D8165F3FDB
:102BF000E4F3983ED4F3869577956795B795F79566
:102C00009F5FC9F7880F911D9695879597F908954D
:102C1000E1E0660F771F881FBB1F621773078407E9
:102C2000BA0720F0621B730B840BBA0BEE1F88F7F8
:102C3000E09508950E9421166894B1110C94D8165D
:102C400008950E94BD1688F09F5798F0B92F9927D4
:102C5000B751B0F0E1F0660F771F881F991F1AF087
:102C6000BA95C9F714C0B13091F00E94D716B1E0FF
:102C700008950C94D716672F782F8827B85F39F0FE
:102C8000B93FCCF3869577956795B395D9F73EF420
:102C900090958095709561957F4F8F4F9F4F0895C8
:102CA000E89409C097FB3EF49095809570956195E6
:102CB0007F4F8F4F9F4F9923A9F0F92F96E9BB279C
:102CC0009395F695879577956795B795F111F8CF18
:102CD000FAF4BB0F11F460FF1BC06F5F7F4F8F4F83
:102CE0009F4F16C0882311F096E911C0772321F079
:102CF0009EE8872F762F05C0662371F096E8862F11
:102D000070E060E02AF09A95660F771F881FDAF767
:102D1000880F9695879597F9089597F99F6780E8AA
:102D200070E060E008959FEF80EC089500240A941D
:102D30001616170618060906089500240A94121696
:102D40001306140605060895092E0394000C11F4C9
:102D5000882352F0BB0F40F4BF2B11F460FF04C076
:102D60006F5F7F4F8F4F9F4F089557FD9058440FCF
:102D7000551F59F05F3F71F04795880F97FB991FDA
:102D800061F09F3F79F08795089512161306140697
:102D9000551FF2CF4695F1DF08C016161706180624
:102DA000991FF1CF86957105610508940895E894FF
:102DB000BB2766277727CB0197F908950E94F01665
:102DC0000C94A4160E94961638F00E949D1620F0CE
:102DD000952311F00C948D160C9493160C94D81620
:102DE0000E94B51678F39923C9F35523B9F3950FCB
:102DF00050E0551FAA27EE27FF27BB270024089481
:102E0000679520F4E20FF31FB41F0A1E220F331F31
:102E1000441FAA1F6695A9F7779530F4F30FB41FE6
:102E20000A1E121E08F46395330F441FAA1F221FA7
:102E3000769599F7879520F4B40F0A1E121E631F2A
:102E4000440FAA1F221F331F8695A9F7862F712DC5
:102E5000602D11249F5750409AF0F1F088234AF0DA
:102E6000EE0FFF1FBB1F661F771F881F915050403A
:102E7000A9F79E3F510580F00C948D160C94D8163E
:102E80005F3FE4F3983ED4F3869577956795B795C1
:102E9000F795E7959F5FC1F7FE2B880F911D9695DB
:102EA000879597F908950024552704C0080E591FE7
:102EB000880F991F009729F076956795B8F37105EB
:102EC000B9F7802D952F0895991B79E004C0991FBB
:102ED000961708F0961B881F7A95C9F78095089574
:102EE000AA1BBB1B51E107C0AA1FBB1FA617B70730
:102EF00010F0A61BB70B881F991F5A95A9F780954C
:102F00009095BC01CD01089597FB072E16F400940F
:102F100007D077FD09D00E94701707FC05D03EF45A
:102F2000909581959F4F0895709561957F4F089575
:102F3000E199FECF1FBA8EBBE09A99278DB3089511
:102F4000262FE199FECF1FBA8EBBE09A81500DB2B9
:102F5000021639F01CBA2DBB0FB6F894E29AE19A2A
:082F60000FBE0895F894FFCFA5
:102F6800060B1801010100044D294303023718001C
:102F78000704959581010909950101383207021561
:102F88000112010F01020100000000000000010011
:102F980000000000000000010000210123022503B9
:082FA800270429052C06FF0691
:00000001FF
