:100000000C946C010C9489010C9467050C94890183
:100010000C9489010C944F050C9489010C9489016E
:100020000C9489010C9489010C9489010C94890128
:100030000C9489010C9489010C9478030C94890127
:100040000C9489010C9489010C9489010C94890108
:100050000C9489010C9489010C9489010C948901F8
:100060000C9489010C9489010C9489010C948901E8
:1000700032303230303232340001050414101115A0
:100080000000000000000000000000000000000070
:100090000000000000000000000000000000000060
:1000A0000000000000000000000000000000000050
:1000B0000000000000000000000000000000000040
:1000C0000000000000000000000000000000000030
:1000D0000000000000000000000000000000000020
:1000E0000000000000000000000000000000000010
:1000F0000000000000000000000000000000000000
:1001000000000000000000000000000000000000EF
:1001100000000000000000000000000000000000DF
:1001200000000000000000000000000000000000CF
:1001300000000000000000000000000000000000BF
:1001400000000000000000000000000000000000AF
:10015000000000000000000000000000000000009F
:10016000000000000000000000000000000000008F
:10017000000000000000000000000000000000007F
:10018000000000000000000000000000000000006F
:10019000000000000000000000000000000000005F
:1001A00000000000000000000000FF03010001004B
:1001B000010001000200020002000200030003002F
:1001C0000300040004000500050006000600070007
:1001D0000800080009000A000B000C000D000E00CA
:1001E0000F00100011001200140015001700180075
:1001F0001A001B001D001F002100230025002700FE
:1002000029002B002D0030003200350038003A0064
:100210003D004000430046004A004D00500054009D
:1002200058005B005F00630067006C0070007400A2
:1002300079007D00820087008C00910096009C0070
:10024000A100A700AD00B200B800BF00C500CB0000
:10025000D200D900DF00E600EE00F500FC0004014A
:100260000C0113011B0124012C0134013D01460145
:100270004F01580161016B0174017E0188019201F7
:100280009D01A701B201BD01C801D301DE01EA0150
:10029000F60102020E021A022702330240024D0248
:1002A0005B026802760284029202A002AF02BE02E2
:1002B000CD02DC02EB02FB020A031A032B033B0311
:1002C0004C035D036E037F039103A303B503C703D0
:1002D000D903EC03FF03000011241FBECFEFD4E0CD
:1002E000DEBFCDBF11E0A0E0B1E0EAECFEE202C06B
:1002F00005900D92AA33B107D9F721E0AAE3B1E046
:1003000001C01D92AC3DB207E1F70E949D140C9410
:1003100063170C94000081E00895809162018823A6
:10032000A1F08091D901811180930F018091DA01B0
:10033000882321F097E9981B90930E018091DB01AF
:10034000882381F080930D0108958091D901811156
:10035000809311018091DA01882321F097E9981B9D
:100360009093100108958091D901882369F020911C
:100370008B0130918C0190916F01291B821B80931E
:100380006F0182E0809316018091DA01882319F0D1
:10039000835E8093150180911501873418F086E4FF
:1003A0008093150108958091D901811180930801EE
:1003B0000895FF920F931F93CF93DF93EC018B016E
:1003C000F22E2091880130918901232B31F0E091A8
:1003D0008801F0918901842F0995D0938901C093F8
:1003E0008801CD2B39F0E0918801F0918901B801A5
:1003F0008F2D0995DF91CF911F910F91FF90089557
:10040000DC0190916E01983098F4E92FF0E0EE0F46
:10041000FF1FE753FE4FB183A0839F5F90936E0150
:1004200028E049E0CD010E94D90180916E01089534
:100430008FEF0895CF93DF9380916E018823B1F001
:10044000815080936E01282F30E0F901EE0FFF1FDD
:10045000E753FE4FC081D181882369F0220F331FFB
:10046000F901E953FE4F8081918107C0C0E0D0E0DF
:1004700080E090E002C080E090E02AE049E060E0A7
:1004800070E00E94D901CE01DF91CF9108950F93C2
:100490001F93CF93DF93EC018B010E941A02B801E6
:1004A000CE010E940002DF91CF911F910F9108951C
:1004B000813C41F460E070E083E09DE00E944702EF
:1004C00080E00895823C41F460E070E08FE69BE0BC
:1004D0000E94470280E0089581E00895813C41F444
:1004E00060E070E083E09DE00E94470280E00895B4
:1004F000823C41F460E070E088E592E00E944702AF
:1005000080E00895843C41F460E070E085EB92E186
:100510000E94000280E0089581E00895813C41F44A
:1005200060E070E083E09DE00E94470280E0089573
:10053000823C41F460E070E08EE692E00E94470267
:1005400080E00895843C41F460E070E08BEB92E140
:100550000E94000280E0089581E008951092C40195
:1005600081E08093680108951092760110927501E0
:100570009091C401803181F4292F20699F70892FC7
:1005800090E00F9724F02093C40181E008952F5F3D
:100590002093C40181E00895882329F09068909306
:1005A000C40180E00895892F8F7E95FD05C0806885
:1005B0008093C40181E00895806C8093C40181E040
:1005C000089590918F01911108C040E013C02F5FF2
:1005D0003F4F2031310519F4089521E030E0422FDA
:1005E000F901EE0FFF1FE20FF31FE157FE4F90815D
:1005F0009111EDCF242F30E0240F311D240F311D38
:10060000F901E157FE4F808372836183089580E092
:1006100090E0FC010196DC01AA0FBB1FA80FB91FD7
:10062000A157BE4F2C91AF01440F551FE40FF51F8A
:10063000E157FE4F208311962D913C911297328302
:1006400021838F30910529F7EFE8F1E015A617A671
:1006500016A608959FEF980F882339F028E13FE10F
:10066000F9013197F1F79150D8F708950F931F933F
:10067000CF93DF93D82F8B01C0916E01C1508AF0C8
:10068000EC2FEE0FFF0BE753FE4F0190F081E02DB2
:10069000B8018D2F0995882331F0C1508AF781E088
:1006A00003C081E001C080E0DF91CF911F910F91E5
:1006B0000895CF93DF9380918F01882361F0CFE875
:1006C000D1E069817A8188810E9436030E94070304
:1006D00088818111F6CFDF91CF91089590937601B3
:1006E00080937501BC018091C4010E94E1020895CC
:1006F0001F920F920FB60F9211242F933F938F9357
:100700009F93AF93BF93EF93FF93809173018823DF
:10071000E9F0E091720120B131B1F0E0EE0FFF1F7E
:10072000DF01AB53BE4F2D933C93E054FE4F8081CD
:1007300091818217930708F401962817390708F466
:1007400001979183808381E08093740181E080939D
:100750007301FF91EF91BF91AF919F918F913F9165
:100760002F910F900FBE0F901F9018958F929F9210
:10077000AF92BF92DF92EF92FF920F931F93CF93AE
:10078000DF931092740120B191B1309169012295EB
:10079000269526952370892F90E0880F991F880F42
:1007A000991F820F911D830F8093690180917101C0
:1007B000882309F464C110927101809172019091B3
:1007C0006B01992319F01F981092720181113EC09C
:1007D00080911601882349F08091C5019091C6014E
:1007E0009093C1018093C00104C08091C001909199
:1007F000C1014096807E969587956EE872E00E94D2
:1008000021176093700180916001882321F081504D
:10081000809360010CC0809170018D3140F460E0E4
:1008200070E084E00E94E10285E0809360018091A5
:100830006B01811115C18BE084B981E08093720155
:100840001092730183B1886483B90AC1813009F0C1
:1008500007C1809116018823D1F08091C701909142
:10086000C8019093C3018093C201409696958795E5
:10087000929582958F7089279F708927E0E5F1E036
:1008800020E631E081939193E217F307D9F7C09105
:10089000C201D091C3016096D695C795D295C295F5
:1008A000CF70CD27DF70CD27D0906F01BE01769538
:1008B00067956D5C710980E090E00E94011628E464
:1008C00031EE42E850E40E94591520E030E0A901E1
:1008D0000E94ED144B015C016D2D0D2C000C770B6B
:1008E000880B990B0E9403169B01AC01C501B40152
:1008F0000E94ED140E94CB1570938C0160938B01C4
:1009000080914F01E82FF0E0EE0FFF1FE05BFE4FFC
:10091000208131817E01E21AF30AD183C0838F5F87
:10092000877080934F010091150110E0C701880F77
:10093000991F880F991FC80FD91FB8016D19710928
:10094000D7FC7395072E000C880B990B0E94031699
:1009500028E431EE42E850E40E948F1620E030E0B7
:100960004DE453E40E94ED140E94D215660F771FE8
:10097000CE01861B970B23E01816190614F4019775
:1009800003C099230CF401962150B1F718161906EB
:10099000A4F5FF200CF46EC020914E01121624F431
:1009A000281B20934E0153C0BC017695762F6627F5
:1009B00077956795605C710912F461587F4F660FF7
:1009C000672F661F770B1616170614F061E070E0AC
:1009D00088E1861B80934E0180918B0190918C0160
:1009E0000D5F1F4F8017910724F480916A018639AB
:1009F00071F185E00E94E1022AC09C012C5F3F4F0B
:100A0000EAF4FF20DCF420914E0122232CF4245040
:100A1000281B20934E011BC024EE281B20934E015F
:100A2000209170012F3198F06CEF7FEF681B790BEC
:100A30007595679586E00E94E10209C0809170017A
:100A40008E3128F060E070E087E00E94E10285E0EE
:100A500084B9109272011092730183B1886483B9D2
:100A600080911601882359F080911601815080935E
:100A7000160105C09C012C5F3F4F02F7C4CFDF91E8
:100A8000CF911F910F91FF90EF90DF90BF90AF90AB
:100A90009F908F900895A89580E480BF08951F923D
:100AA0000F920FB60F9211248F9381E080936D0106
:100AB0008F910F900FBE0F901F9018958FB182FBF2
:100AC000882780F991E0892780938E0108951F92ED
:100AD0000F920FB60F9211248F9381E080936C01D7
:100AE0008F910F900FBE0F901F901895CF93C82F26
:100AF000882321F080E10E94B40203C080E00E94BC
:100B0000B402882331F0C0938E0180E090E00E940F
:100B10006E03CF910895CF93DF9310926D01809172
:100B20007501909176019C012F5F3F4F8827907847
:100B3000822B932B9093760180937501C0918E0147
:100B40000E945E05C81721F010926B010E94760585
:100B5000C0917501D091760180916B018823F9F0E5
:100B6000BE0183E00E94E1020E945903CF73DD279A
:100B7000CD2B09F059C010924D0185E084B9109237
:100B800072011092730183B1886483B9E1E6F0E0E9
:100B9000808181608083139A86EE83B935C080910D
:100BA000C401807F803B31F460E070E081E00E940E
:100BB000E10204C0BE0181E00E94E1028091C40113
:100BC00084FF10C085FF04C0CE010E946E031CC0CC
:100BD0006897D0F080628093C40180E090E00E942A
:100BE0006E0312C0882381F085FF03C00E94AE020D
:100BF0000BC0629748F080648093C40180E090E06D
:100C00000E946E030E94AE0280914D01811106C0C8
:100C100083B1886483B981E08093710180914D0133
:100C20008F5F8F7180934D01DF91CF910895CF93A6
:100C3000A89583E480BF1F980E945E058111FCCFB8
:100C40000E94AE028CB788608CBF10927401109223
:100C50006D0110926C01C1E01FC086B78F7980646E
:100C600086BF86B7806186BF889586B78F7E86BF30
:100C700080916C01811110926B0180917401882325
:100C800031F0C0931601C09371010E94B6038091A8
:100C90006D0181110E948B0580916B018111DDCF67
:100CA00082E0809316018CB7877F8CBF85E084B982
:100CB000109272011092730183B1886483B9E1E6E6
:100CC000F0E0808181608083139A86EE83B90E9470
:100CD0004B05CF91089586B78F7986BF86B780611F
:100CE00086BF889586B78F7E86BF089550918D0107
:100CF00080916A01581720F450916A01515007C041
:100D000080916A01851718F450916A015F5F4FEF77
:100D1000450F453910F48F9A01C08F98842F90E0C9
:100D2000880F991FBC0164557E4FFB0125913491BA
:100D3000E0916A014E1788F4E0916A00F0916B002F
:100D4000EF2B59F42F3F43E0340739F42FEF33E012
:100D500030936B0020936A001FC0E0916A00F0910D
:100D60006B00E217F30748F4EAE6F0E020813181F6
:100D70002F5F3F4F318320830FC0E0916A00F091D5
:100D80006B002E173F0740F4EAE6F0E02081318146
:100D9000215031093183208380589F4FFC012591D8
:100DA0003491E0916C00F0916D00E217F30748F484
:100DB000ECE6F0E0208131812F5F3F4F31832083CB
:100DC0000FC0E0916C00F0916D002E173F0740F4CA
:100DD000ECE6F0E02081318121503109318320831C
:100DE000A0916A00B0916B00FB0125913491A2178C
:100DF000B30761F420916C0030916D00FC01859186
:100E000094912817390711F450936A010895E091DD
:100E10000601F09107013196FB70F460F093070131
:100E2000E0930601809169018B5A80936901E491F6
:100E3000809169018E0F0895EF92FF920F931F9397
:100E4000CF93DF9382E00E942A03F89480E890E039
:100E50000E944917853A19F0789480E017C00F2E48
:100E6000F8E8EF2EF1E0FF2EF02DC7E7D1E001E822
:100E700010E007571140C8018C0F9D1F0E944917B1
:100E80008993CE15DF05B9F7789481E0DF91CF9192
:100E90001F910F91FF90EF900895EF92FF920F93A3
:100EA0001F93CF93DF9382E00E942A03F8940F2EC2
:100EB000F8E8EF2EF1E0FF2EF02DC7E7D1E000E8D3
:100EC00010E0075711406991C8018C0F9D1F0E94C7
:100ED0005117CE15DF05B9F765EA80E890E00E946A
:100EE00051177894DF91CF911F910F91FF90EF9060
:100EF00008950F931F93CF93DF9300D01F92CDB728
:100F0000DEB795E0998394E09A8393E09B83FE019A
:100F1000319640E050E090E061E070E0A1919A01EC
:100F2000220F331F8C0102C0159507952A95E2F711
:100F30009801237019F0213099F024C0B0B39B01BF
:100F400002C0220F331FAA95E2F720953B2F3223D0
:100F500030BB32B3322332BB31B3232321BB22C097
:100F6000B0B39B0102C0220F331FAA95E2F7322FC4
:100F700030953B2330BB32B3322B32BB31B3232B02
:100F800021BB10C0B0B39B0102C0220F331FAA9532
:100F9000E2F73B2F322B30BB32B3322B32BB31B3B3
:100FA000232B21BB4F5F5F4F4330510509F0B6CF74
:100FB0000F900F900F90DF91CF911F910F91089597
:100FC000CF93C82F80936A0180938D0180916B012C
:100FD000811102C00E947907C1110AC010926B00F2
:100FE00010926A0010926D0010926C008F981CC0D5
:100FF000C150C53910F48F9A01C08F988C2F90E0A2
:10100000880F991FFC01E455FE4F259134913093D0
:101010006B0020936A00FC01E058FF4F859194918A
:1010200090936D0080936C00CF910895CF93DF93E0
:10103000883061F41092400160933F0110923E01AC
:1010400010923D0110923C0180E09FC0813009F078
:1010500079C090913E01892F8D7FB1F420913C01A0
:1010600030913D012F31310538F42F5F3F4F3093E0
:101070003D0120933C0189C09F5F90933E011092F7
:101080003D0110923C0181C0913071F580913F018A
:10109000882311F1C0913C01D0913D019E012F7137
:1010A00033272A30310521F485E20E94E0070DC084
:1010B0002431310521F480E00E94E00706C02F3181
:1010C000310519F4815080933F012196D0933D0161
:1010D000C0933C0180E059C092E090933E01109291
:1010E0003D0110923C0151C0933011F5C0913C017B
:1010F000D0913D012196D0933D01C0933C01CE019A
:1011000083709927009721F489E10E94E00705C0C8
:10111000029719F482E10E94E007CB3BD10570F100
:1011200080E00E94E00784E080933E0180E02DC0D3
:10113000943031F5809140018093BF010E941A02E2
:1011400080E023C08138F1F40E94AE0280913E011C
:101150008330D1F4809140018F5F809340011092E1
:101160003D0110923C018BE40E94E00784E00E9464
:101170002A0380E00E94E00780E007C080E005C00D
:1011800080E003C081E001C080E0DF91CF9108954D
:10119000982F990F88230CF49095892F0895F8942F
:1011A00088ED8FBD88E880BF7894A895FFCF8091A7
:1011B000740181110E94B60380916D0181110E941A
:1011C0008B050895EF92FF920F931F93CF93DF93B8
:1011D00000918801109189010097E9F0EC010F2E30
:1011E000F8E0EF2EF7E0FF2EF02DC7010197F1F7A1
:1011F0000E94D7088091680181110FC02091880159
:10120000309189010217130749F40E94590321976D
:1012100061F781E003C081E001C080E0DF91CF9100
:101220001F910F91FF90EF900895CF93C82F8823BF
:10123000A9F089E10E94E00786EA90E00E94E208B6
:1012400080E00E94E0078AEF90E00E94E208C1502F
:1012500081F78AE992E00E94E2080FC089E10E94CA
:10126000E00788E090E00E94E20880E00E94E0074A
:101270008AEF90E00E94E208ECCFCF910895CF93DF
:10128000DF93C82F843688F08CE98C0F843638F0D1
:1012900088E38C0F843630F0CC5283E007C0C82F2F
:1012A00081E004C0C82F82E001C080E0CA30F8F0BD
:1012B000D0E0DF5FCA50CA30E0F78823A9F001C050
:1012C000D0E00E9415098823A9F08D2F0E941509EE
:1012D000882381F08C2F0E941509882359F088EE0D
:1012E00093E00E94E20806C0D111EFCFF3CF88232C
:1012F00089F3E6CFDF91CF910895809170010E942C
:101300003F090895AF92BF92CF92DF92EF92FF9282
:101310000F931F93CF93DF93883039F410924A01D3
:1013200081E080930301C0E038C1823C21F4109237
:101330004A01C0E032C1813B21F5672B69F48091FD
:1013400002018E3620F08FEF8093030105C08230BA
:1013500018F481E080930301C091020180910301A0
:10136000C80F21F481E08093020117C1CF3620F429
:10137000C0930201C0E011C18EE680930201C0E07B
:101380000CC1813E39F48091030181958093030162
:10139000C0E003C1823B69F481E080930301809146
:1013A0000201823008F4DFC0815080930201C0E066
:1013B000F4C0EB01833C91F480914A01843E08F033
:1013C000D4C0855E80934A0180916A01805E0E944C
:1013D000E00782E00E942A03C0E0DFC0813009F00C
:1013E000C6C06E33710549F48093030180914A01B0
:1013F000813009F4C0C0A12C31C080914A018130F4
:10140000A1F48091020190E09B013F70B9017295B7
:1014100062956F7067277F70672749960E9404174F
:10142000A92E2F3F3F40D1F4B5C09B013F702F3F05
:101430003F4079F4882379F0815080934A018111EB
:101440000CC0A12C60E070E083E09DE00E944702A8
:1014500005C0A12C03C0A12C01C0A12CC090490142
:101460008C2D0E94C808F82E00914801802F0E9400
:10147000C808B82ED090010110914701812F0E9419
:10148000C808482FE09000018F2D90E09C01220FAA
:10149000331F220F331F220F331F281B390B2091BC
:1014A00002012A19230F6D2D70E08B2D90E00E9410
:1014B0000417290F6E2D70E0842F90E00E9404170E
:1014C000822F890F0AF480E00E94E007C0FD06C069
:1014D0000E9407078170C80EC092490180914601A1
:1014E000080F009348010E94070765E20E94151744
:1014F000190F109347010E9407078F7339F40E9458
:1015000007076DE00E94151790934601DD2039F022
:101510000E9407078F7319F4DA94D09201010E9498
:101520000707811109C00E9407076BE00E94151789
:10153000909301011092480192E09E1538F40E94A8
:1015400007078F7119F4EA94E09200010E940707DF
:10155000C82FCF7771F40E94070766E00E94151725
:10156000909300011AC0C0E018C0C0E016C0C1E0EE
:1015700014C0C0E012C08091020190E07F707295AB
:1015800062956F7067277F70672749960E940417DE
:10159000A92E64CF10924A0155CF8C2FDF91CF91A5
:1015A0001F910F91FF90EF90DF90CF90BF90AF9081
:1015B00008950F931F93CF93DF93FC016091110166
:1015C0008091100190916201992321F060910F01A7
:1015D00080910E01262F30E0E217F3070CF45EC075
:1015E000282F30E02E173F070CF45BC0809162017A
:1015F000811102C08E2F55C000910E0180910F0104
:10160000081B60910D01802F90E070E0615071091E
:101610000E943517C62F60938A0180910F01909127
:101620000D019923F1F110E080910D0180910F01DE
:10163000682FAF01481B5109C695D0E09A01552388
:1016400024F422273327241B350BC217D3074CF56C
:1016500030E01DC020910D0140910F01832F90E0DB
:10166000B8010E940417622F70E0615071090E9456
:101670002117640FAF01461B5109CA01992324F4B5
:1016800088279927841B950BC817D9074CF43F5F0F
:1016900080910D013817F0F2862F03C0862F01C00C
:1016A000862FDF91CF911F910F9108958093610153
:1016B0000E94E0070895CF93C82F882371F085E238
:1016C0000E94E00782E00E942A0380E00E94E00777
:1016D00089E10E942A03C15091F7CF910895CF93D9
:1016E000883061F4109245011092440182E00E941A
:1016F0005B0B88E10E94E007C0E03CC0813C41F404
:1017000060E070E083E09DE00E944702C0E032C0EC
:10171000823C41F460E070E08EE892E00E94470273
:10172000C0E028C0813019F58091440190914501B5
:101730000196853524E2920730F490934501809319
:101740004401C0E017C010924501109244018091FD
:101750006A0181500E94E007C0916A01C11109C06D
:1017600060E070E083E09DE00E94470203C0C1E0BA
:1017700001C0C0E08C2FCF910895CF93C0916A0132
:1017800080E00E94E00783E00E942A038C2F0E94E1
:10179000E007CF910895CF93DF93CDB7DEB7609781
:1017A0000FB6F894DEBF0FBECDBF80E1E7E1F1E0F8
:1017B000DE01119601900D928A95E1F7409170013A
:1017C0004D31E0F08981481770F080E08E5F282F5E
:1017D00030E0E1E0F0E0EC0FFD1FE20FF31F90813D
:1017E0004917A0F702C020E030E0FE01E20FF31F2E
:1017F000E081F0E0E758FF4F849101C080E06096FF
:101800000FB6F894DEBF0FBECDBFDF91CF91089524
:101810001F93CF93DF93CDB7DEB763970FB6F894DE
:10182000DEBF0FBECDBF9091700191509C3120F46E
:1018300080E00E94790769C0182F12951F708F7081
:1018400090916B01911103C0133008F012E08730C2
:1018500030F4E82FF0E0E758FF4F249130C0873094
:10186000D1F480916B01882311F08FE001C083E0F7
:10187000682351F480913B0190E0019666E070E0AE
:101880000E94351780933B01E0913B01F0E0E7585F
:10189000FF4F249114C080916B01882321F00E9496
:1018A000CB0B282F0CC0862F869563E00E9415175E
:1018B000E92FF0E0EE0FFF1FE758FF4F24911330A0
:1018C000D1F483E1E7E2F1E0DE01119601900D929F
:1018D0008A95E1F780913A0190E0019663E170E02A
:1018E0000E94211780933A01E1E0F0E0EC0FFD1F28
:1018F000E80FF11D1081112321F0113019F0220F92
:1019000001C020E0822F0E94790763960FB6F894F9
:10191000DEBF0FBECDBFDF91CF911F9108950E9412
:101920001C078823B1F1E7E7F1E080818093620131
:101930008181809311018281809310018381809342
:101940000F01848180930E01858180930D01868132
:1019500080936301878180930C018085AAE0B1E0C8
:101960008C93818511968C93828580930901838560
:101970008093080184858093650185858093150196
:10198000868580936F018785809314018089809379
:101990001301089580916201E7E7F1E0808380916F
:1019A0001101818380911001828380910F018383D3
:1019B00080910E01848380910D0185838091630164
:1019C000868380910C018783AAE0B1E08C918087A7
:1019D00011968C91818780910901828780910801FD
:1019E0008387809165018487809115018587809127
:1019F0006F01868780911401878780911301808B06
:101A00000E944D0708950F931F93CF938B01883049
:101A100081F480E00E94E00760E0809114010E9460
:101A2000080C012B09F016C181E080936B01C0E026
:101A300016C1813061F46931710508F40DC18093DC
:101A40006B01809114010E94080CC0E008C1833032
:101A500031F4809114010E94080CC0E000C1813B68
:101A6000B1F481E090E00E94D90A0E94E007C091A1
:101A70006201C11104C00831110508F4F0C061E031
:101A800070E084E39EE00E944702C0E0E8C0813E2F
:101A900041F461E070E084E39EE00E944702C0E010
:101AA000DEC08138A1F4C0916301CC2341F08C2FBA
:101AB00090E00E94D90A0E94E007C0E0D0C0809167
:101AC000120190E00E94D90A0E94E007C8C0813C40
:101AD000A1F4C0916301CC2341F06C2F70E084E34A
:101AE0009EE00E944702C0E0BAC06091120170E01F
:101AF00084E39EE00E944702B2C0823B41F466E963
:101B000070E084E39EE00E944702C0E0A8C0823CEF
:101B100041F466E970E084E39EE00E944702C0E081
:101B20009EC0833929F480E00E94E007C0E097C09E
:101B3000833C41F460E070E088E592E00E94470257
:101B4000C0E08DC0833B41F460E070E08DEE9FE02B
:101B50000E944702C0E083C0843C59F482E00E94A6
:101B60005B0B60E070E089EF90E10E944702C0E00B
:101B700076C0853C59F481E00E945B0B60E070E028
:101B800082EB90E10E944702C0E069C0863C59F4B4
:101B900081E00E945B0B60E070E088EA91E10E94C6
:101BA0004702C0E05CC0873CB9F490911401892FD2
:101BB00082958F708F5F83708295807F9F70892B55
:101BC0008093140160E00E94080C0E94CA0C81E01E
:101BD0000E945B0BC0E043C0873BE1F481E080934F
:101BE0006401CB018F739927892B69F490911401BB
:101BF000892F8F708F5F292F207F6AE00E94151731
:101C0000922B90931401602F809114010E94080C74
:101C1000C0E025C0873E31F4109264010E94CA0CD6
:101C2000C0E01DC08A3C41F460E070E085EB92E1C9
:101C30000E940002C0E013C08F3C41F460E070E0FD
:101C40008BE891E00E944702C0E009C08D3B31F46F
:101C50000E94CF08C0E003C0C0E001C0C1E08C2FEB
:101C6000CF911F910F910895CF93DF939B014091E6
:101C70001101C091100190916201992339F04091B6
:101C80000F01C0910E01D0918A0101C0D1E08830CE
:101C900009F497C18A30B9F48EC1842F90E082177D
:101CA000930738F48C2F90E02817390710F420930D
:101CB0001201C9010E94D90A0E94560B81E080934B
:101CC000050180E087C1813C41F460E070E083E081
:101CD0009DE00E94470280E07DC1823C79F48091C2
:101CE0006A01863928F486E90E94560B80E072C1A9
:101CF000809112010E94560B80E06CC1833CB1F4CC
:101D00009091620181E0911180E0809362010E94D4
:101D1000CA0C0E94BD0B80916A0190E00E94D90A12
:101D2000809312010E94560B80E054C1843C41F420
:101D300060E070E08DEA92E10E94000280E04AC11A
:101D4000813B09F059C080916201882341F0C901AB
:101D500068E170E00E942117892B09F01AC1211552
:101D6000310581F480916A018C1720F08FEF809308
:101D7000050123C080916A014817F8F081E0809343
:101D800005011BC0273381E0380740F080916A01CC
:101D90008C1720F08FEF809305010FC02D36324055
:101DA00060F080916A01481740F00E94BD0B60E02E
:101DB00070E089EF90E10E94470220916A018091D2
:101DC00005016D2F70E0082E000C990B0E9404177E
:101DD000820F911D0E94D90A8093120190916A018D
:101DE000891721F0C81302C00E94BD0B8091120117
:101DF0000E94560B80E0EEC0813E39F480910501CF
:101E000081958093050180E0E5C0823BE1F481E0AB
:101E10008093050180916201882341F0C90168E146
:101E200070E00E942117892B09F0B5C080916A01EA
:101E300090E08D1B91090E94D90A809312010E94A3
:101E4000560B80E0C7C0853C51F480916A018093B5
:101E500063010E94CA0C0E94BD0B81E0BBC0853BA0
:101E600059F4232B09F099C0109263010E94CA0C07
:101E70000E94BD0B81E0AEC08130D1F52E3331051B
:101E800011F48093050180918D0120916A0190E009
:101E9000821B910960914B0170914C016F5F7F4FE4
:101EA00070934C0160934B01009709F478C00CF0DB
:101EB0008BC020916A012D3808F489C040E450E0BD
:101EC000569547959C01992314F42F5F3F4FC90104
:101ED000959587950097A1F74617570708F061C0B9
:101EE0000E94760610924C0110924B0180E072C065
:101EF0008530C1F480916A018E3408F454C0809119
:101F00006A0190E0821B930B282F8D3491052CF0F1
:101F10008739910518F026E901C02DE420938D0141
:101F200080E058C08630C9F490916A0180916101C7
:101F30009817D8F590916A01290F311D90E082170A
:101F400093073CF02D3431051CF48DE490E001C082
:101F5000C90180938D0180E03DC0873041F59091AB
:101F60008D0180916A01891738F480916A018F5F31
:101F700080938D0180E02EC090918D0180916A0147
:101F80009817B8F480916A01815080938D0180E0A8
:101F900021C080E01FC080E01DC081E01BC080E048
:101FA00019C080E017C080E015C080E013C081E058
:101FB00011C080E00FC0109267012091120130E043
:101FC0006CCE1092670169CE40E052E079CF40E0DC
:101FD00051E076CFDF91CF9108950F931F93CF9368
:101FE000DF93C82F8B01D0910C0181E080936701B2
:101FF000D33019F48C2F0E948209C83029F481E073
:102000008093040180E0A9C0C13C41F460E070E02D
:1020100083E09DE00E94470280E09FC0C23C69F4DB
:102020008D2F90E0019665E070E00E943517809357
:102030000C010E94CA0C80E090C0C13BC9F5D230AF
:10204000C0F400FD7FC08D2F90E0FC01E65FFE4FE5
:10205000208130910401231B283020F02F3F19F4F8
:102060002EEF01C028E0FC01E65FFE4F208380E0F8
:1020700074C0D43009F068C09091090180910401C6
:10208000890F8093090180910901823020F482E058
:102090008093090107C080910901893718F088E70A
:1020A00080930901809109010E94E00780E055C0FA
:1020B000C13E49F4809104018195809304010E94FE
:1020C000CA0C80E04AC0C23B41F581E08093040124
:1020D000D23090F400FD3AC08D2F90E0FC01E65F15
:1020E000FE4F20812F3FA1F1FC01E65FFE4F808172
:1020F0008F5F808380E031C0D43061F58091090129
:10210000833028F0809109018150809309018091EA
:1021100009010E94E00780E020C0C23E21F40E9435
:10212000CA0C80E01AC0C130B9F40E33110519F49D
:1021300081E08093040180916901080F0093690197
:1021400080E00BC080E009C080E007C080E005C0EF
:1021500080E003C080E001C081E0DF91CF911F915A
:102160000F910895CF93883041F4809167018130B9
:10217000E1F588E00E94ED0F38C0982F90799039F2
:1021800061F481E080936601C0916701C11127C0AD
:10219000809112010E94E00729C0903839F4109212
:1021A000660180E00E94E007C0E020C08130C9F4F1
:1021B000C0916601CC2341F080916701813099F490
:1021C0000E94ED0FC82F12C06733714078F081E094
:1021D00080936B0160E080E00E94080C07C0C0E0C3
:1021E00005C0C1E003C0C0E001C0C1E08C2FCF91A9
:1021F0000895EF92FF921F93CF93DF9300D0CDB756
:10220000DEB7182F7B01833B69F480E00E94E00772
:1022100081E080936401C7018F739927892B09F4AA
:1022200063C06FC080798039F1F480911101898396
:1022300080910F018A83812F8F70823059F49091A1
:10224000620181E08927FE01E80FF11D81810E9472
:10225000E0070EC080916201FE01E80FF11D81814F
:102260000E94E00705C0803819F480E00E94E00772
:10227000183039F460E0809113010E94080C81E06D
:102280005FC0113079F489E1E816F10408F455C013
:1022900081E080936B016E2D809113010E94080CE8
:1022A00080E04EC0133039F46E2D809113010E94EE
:1022B000080C80E045C0133C59F590911301892F1B
:1022C00082958F708F5F83708295807F9F70892B3E
:1022D0008093130160E00E94080C0E94CA0C81E008
:1022E0000E945B0B80E02CC090911301892F8F70AE
:1022F0008F5F292F207F6AE00E941517922B909301
:1023000013016E2D809113010E94080C80E018C00B
:10231000133E31F4109264010E94CA0C80E010C098
:10232000143C69F481E00E945B0B60E070E083E0A4
:102330009DE00E94470280E003C080E001C081E090
:102340000F900F90DF91CF911F91FF90EF90089524
:10235000CF93883071F4C1E0C0934301C09365010D
:102360000E94CA0CC093420186E38093120180E070
:10237000C5C0813951F480914201882309F4AFC06E
:102380008AE00E94E00781E0B9C0813859F4809169
:102390004201882309F4A5C0809112010E94E00740
:1023A00081E0ACC0823941F481E08093420180E059
:1023B0000E94E00781E0A2C0813C71F4909142014B
:1023C00081E0892780934201882309F48CC080E052
:1023D0000E94E00780E092C0813B49F560FD85C026
:1023E00080914201882351F01092420181E0809354
:1023F00043018AE00E94E00780E080C090916A017A
:102400006230710528F4933618F08FEF8093430102
:1024100080914301890F8A3008F48AE0843608F0FD
:1024200083E6809312010E94E00780E067C0813E4E
:1024300039F48091430181958093430180E05EC02F
:10244000863C79F481E00E945B0B109265010E944A
:10245000CA0C60E070E083E09DE00E94470280E0EB
:102460004DC0813099F46E33710521F4809343019E
:1024700080E044C0809142018823C9F16F33710527
:10248000C0F181E080936B0180E038C0853091F429
:102490008091420181112FC080916A0190E0861BDA
:1024A000970B8A30910514F48AE090E00E94E007CF
:1024B00080E024C0843009F590916A0180916A011E
:1024C000969586958695890F8A3020F00E94E007C0
:1024D00080E014C081E08093420180E00FC081E081
:1024E0000DC081E00BC080E009C080E007C080E043
:1024F00005C080E003C080E001C081E0CF91089575
:10250000883031F41092410180E00E94E00723C03E
:10251000813099F460914101641740F470E06F5F7D
:102520007F4F86E198E00E94000215C0F9010995ED
:102530000E94CA0C0E941A020EC08A3061F4809177
:1025400041019091BF01E82FF0E0E752FE4F9083E8
:102550008F5F8093410180E00895409162014E5F5A
:102560002DE831E00E948012089523EB31E042E033
:102570000E948012089523ED31E041E00E94801214
:102580000895CF93C0E08C2F0E94E00783E190E094
:102590000E94E2088C2F86950E94E00783E190E07C
:1025A0000E94E2080E945E058823E1F0CF5FC034FC
:1025B00051F714C08C2F0E94E00784E090E00E9445
:1025C000E208C150B9F710C08C2F0E94E0078DE0DF
:1025D00090E00E94E208C150B9F706C00E94CA0C00
:1025E000C6E9E8CFC111F0CFCF910895809188015D
:1025F000909189012FE08D3E920739F469E170E0F6
:1026000084E39EE00E944702089584539E40B9F4FB
:1026100080916A01823060F020916A0190916A0194
:102620002695892F86958695820F0E94560B0895D0
:1026300060E070E083E09DE00E944702089560E062
:1026400070E083E09DE00E9447020895843021F409
:102650000E94F61280E0089581E0089582E10E94D0
:10266000E00783E00E942A0380E00E94E0070E94C6
:102670005E0581110E94C1120E948F0C809165013C
:10268000882339F066E370E088EA91E10E94000255
:10269000089561E070E083E09DE00E9400020895EB
:1026A000CF92DF92EF92FF920F931F93CF93DF931E
:1026B000809188019091890121E08B389207C1F4C3
:1026C000C0E7D0E008E710E0FE01849180530E944B
:1026D00015098CE291E00E94E2082196C017D1070B
:1026E00099F760E070E083E09DE00E9447021CC122
:1026F000FFE08D3E9F0779F020E1823B920709F0D1
:10270000C3C080916701813009F001C180916601E9
:10271000882309F4FCC0C0910C01C23009F120F0FB
:10272000C43009F494C000C1EC2FF0E0E65FFE4F26
:10273000D08186E90E94E007C11105C084E090E0E5
:102740000E94E20805C08D2F869590E00E94E20865
:1027500080E00E94E0078D2F90E00E94E208E4C034
:102760000E9407078F73082F10E00E94070767E099
:102770000E941517C1E0D0E07E0102C0EE0CFF1CE4
:102780009A95E2F70E94070765E00E94151702C0BC
:10279000CC0FDD1F9A95E2F7CE0DDF1D0E940707D3
:1027A00090E0BE010E943517C80FD91FC739D10567
:1027B00008F0B0C08C2F0E94E007C8010E94E20818
:1027C0007E01F594E794F594E794F594E7948E2DC3
:1027D000E11001C081E0C230D105F4F0E82EF12C07
:1027E000C12CD12CC8010E94E208CE19DF0912F4D5
:1027F000CC2DDD2D8C2F0E94E0070E9407078370EF
:1028000041F4C8010E94E208CE01959587950E9487
:10281000E007C230D10534F70E9407076DE00E943F
:102820001517C1E0D0E002C0CC0FDD1F9A95E2F78A
:102830000E94070790E0BE010E942117C80FD91F10
:1028400080E00E94E007CE010E94E2086DC0D091B6
:102850000901DD0FD73908F0D6E9C4E08D2F0E94B9
:10286000E00785E090E00E94E208809109010E9463
:10287000E00781E490E00E94E208C15079F780ED22
:1028800092E00E94E20850C0F2E088359F0719F4F8
:102890000E947D0949C022E08E38920751F580914F
:1028A00012010E94E00784E690E00E94E20880E0C6
:1028B0000E94E0078091080190E09C01220F331FE5
:1028C00022953295307F3227207F3227281B390B03
:1028D000220F331F220F331F820F931F880F991F60
:1028E000880F991F880F991F845691090E94E2084A
:1028F0001BC08E56924059F480918B0190918C01AF
:102900000E943F0988EE93E00E94E2080DC00E94F9
:102910006B060AC086E90E94E007C8010E94E2082F
:10292000C6E9D0E082E15ACFDF91CF911F910F919C
:10293000FF90EF90DF90CF900895F89485B7877F50
:1029400085BF88ED90E00FB6F894A8958FBD90B73D
:10295000977F90BF0FBE88E08CB988EF80BB83EA79
:102960008093720081E08093710084E082BB87BD18
:102970008CB788608CBF0E944B0585E084B91092AB
:1029800072011092730183B1886483B9E1E6F0E0CB
:10299000808181608083139A86EE83B9789481E088
:1029A0000E942A0360E070E086E293E10E94000248
:1029B0000E942E130E94590380916B01882329F0F5
:1029C00080E00E94E0070E9417060E94D7080E943C
:1029D000501310926801EECF5058BB27AA270E94CF
:1029E00004150C9455160E94471638F00E944E1696
:1029F00020F039F49F3F19F426F40C9444160EF499
:102A0000E095E7FB0C943E16E92F0E94661658F3FA
:102A1000BA17620773078407950720F079F4A6F5C3
:102A20000C9488160EF4E0950B2EBA2FA02D0B01F6
:102A3000B90190010C01CA01A0011124FF27591B03
:102A400099F0593F50F4503E68F11A16F040A22F09
:102A5000232F342F4427585FF3CF4695379527957A
:102A6000A795F0405395C9F77EF41F16BA0B620B79
:102A7000730B840BBAF09150A1F0FF0FBB1F661FC0
:102A8000771F881FC2F70EC0BA0F621F731F841F03
:102A900048F4879577956795B795F7959E3F08F029
:102AA000B0CF9395880F08F09927EE0F97958795EB
:102AB00008950E946D150C9455160E944E1658F0FC
:102AC0000E94471640F029F45F3F29F00C943E160F
:102AD00051110C9489160C9444160E94661668F3E2
:102AE0009923B1F3552391F3951B550BBB27AA27C7
:102AF00062177307840738F09F5F5F4F220F331F01
:102B0000441FAA1FA9F335D00E2E3AF0E0E832D0C8
:102B100091505040E695001CCAF72BD0FE2F29D0CB
:102B2000660F771F881FBB1F261737074807AB079D
:102B3000B0E809F0BB0B802DBF01FF2793585F4F12
:102B40003AF09E3F510578F00C943E160C9489168D
:102B50005F3FE4F3983ED4F3869577956795B795F4
:102B6000F7959F5FC9F7880F911D9695879597F9FF
:102B70000895E1E0660F771F881FBB1F6217730778
:102B80008407BA0720F0621B730B840BBA0BEE1F8D
:102B900088F7E09508950E94D2156894B1110C94BD
:102BA000891608950E946E1688F09F5798F0B92FE5
:102BB0009927B751B0F0E1F0660F771F881F991F72
:102BC0001AF0BA95C9F714C0B13091F00E94881676
:102BD000B1E008950C948816672F782F8827B85F86
:102BE00039F0B93FCCF3869577956795B395D9F7CA
:102BF0003EF490958095709561957F4F8F4F9F4FD4
:102C00000895E89409C097FB3EF4909580957095DF
:102C100061957F4F8F4F9F4F9923A9F0F92F96E928
:102C2000BB279395F695879577956795B795F1119D
:102C3000F8CFFAF4BB0F11F460FF1BC06F5F7F4F3A
:102C40008F4F9F4F16C0882311F096E911C077234C
:102C500021F09EE8872F762F05C0662371F096E855
:102C6000862F70E060E02AF09A95660F771F881F24
:102C7000DAF7880F9695879597F9089597F99F67E2
:102C800080E870E060E008959FEF80EC08950024F4
:102C90000A941616170618060906089500240A94C1
:102CA00012161306140605060895092E0394000C47
:102CB00011F4882352F0BB0F40F4BF2B11F460FFD6
:102CC00004C06F5F7F4F8F4F9F4F089557FD9058FF
:102CD000440F551F59F05F3F71F04795880F97FBE0
:102CE000991F61F09F3F79F087950895121613069A
:102CF0001406551FF2CF4695F1DF08C016161706C9
:102D00001806991FF1CF86957105610508940895FD
:102D1000E894BB2766277727CB0197F908950E948F
:102D2000A1160C9455160E94471638F00E944E16B4
:102D300020F0952311F00C943E160C9444160C943C
:102D400089160E94661678F39923C9F35523B9F3BF
:102D5000950F50E0551FAA27EE27FF27BB27002419
:102D60000894679520F4E20FF31FB41F0A1E220F88
:102D7000331F441FAA1F6695A9F7779530F4F30F08
:102D8000B41F0A1E121E08F46395330F441FAA1FB6
:102D9000221F769599F7879520F4B40F0A1E121E0C
:102DA000631F440FAA1F221F331F8695A9F7862F82
:102DB000712D602D11249F5750409AF0F1F0882317
:102DC0004AF0EE0FFF1FBB1F661F771F881F915031
:102DD0005040A9F79E3F510580F00C943E160C948C
:102DE00089165F3FE4F3983ED4F38695779567950F
:102DF000B795F795E7959F5FC1F7FE2B880F911D5B
:102E00009695879597F908950024552704C0080ED4
:102E1000591F880F991F009729F076956795B8F389
:102E20007105B9F7802D952F0895991B79E004C09D
:102E3000991F961708F0961B881F7A95C9F78095F9
:102E40000895AA1BBB1B51E107C0AA1FBB1FA617F1
:102E5000B70710F0A61BB70B881F991F5A95A9F743
:102E600080959095BC01CD01089597FB072E16F42F
:102E7000009407D077FD09D00E94211707FC05D0E8
:102E80003EF4909581959F4F0895709561957F4F81
:102E90000895E199FECF1FBA8EBBE09A99278DB3B2
:102EA0000895262FE199FECF1FBA8EBBE09A81507C
:102EB0000DB2021639F01CBA2DBB0FB6F894E29A87
:0A2EC000E19A0FBE0895F894FFCFC9
:102ECA00060B180101010004024D29430307950A64
:102EDA009501383718320200002101230225032701
:102EEA000429052C06FF060201000000000000006C
:0A2EFA0001000000000000000001CC
:00000001FF
